{
  "_format": "hh-sol-artifact-1",
  "contractName": "NCPStakingGateway",
  "sourceName": "contracts/gateway/NCPStakingGateway.sol",
  "abi": [
    {
      "inputs": [],
      "stateMutability": "nonpayable",
      "type": "constructor"
    },
    {
      "anonymous": false,
      "inputs": [
        {
          "indexed": false,
          "internalType": "uint8",
          "name": "version",
          "type": "uint8"
        }
      ],
      "name": "Initialized",
      "type": "event"
    },
    {
      "anonymous": false,
      "inputs": [
        {
          "indexed": true,
          "internalType": "address",
          "name": "previousOwner",
          "type": "address"
        },
        {
          "indexed": true,
          "internalType": "address",
          "name": "newOwner",
          "type": "address"
        }
      ],
      "name": "OwnershipTransferred",
      "type": "event"
    },
    {
      "inputs": [],
      "name": "NCPStaking",
      "outputs": [
        {
          "internalType": "contract INCPStaking",
          "name": "",
          "type": "address"
        }
      ],
      "stateMutability": "view",
      "type": "function"
    },
    {
      "inputs": [
        {
          "internalType": "uint256",
          "name": "pid",
          "type": "uint256"
        }
      ],
      "name": "computePoolAPR",
      "outputs": [
        {
          "internalType": "uint256",
          "name": "apr",
          "type": "uint256"
        }
      ],
      "stateMutability": "view",
      "type": "function"
    },
    {
      "inputs": [
        {
          "internalType": "uint256",
          "name": "pid",
          "type": "uint256"
        }
      ],
      "name": "computePoolAPRforFeeChange",
      "outputs": [
        {
          "internalType": "uint256",
          "name": "apr",
          "type": "uint256"
        }
      ],
      "stateMutability": "view",
      "type": "function"
    },
    {
      "inputs": [
        {
          "internalType": "uint256",
          "name": "pid",
          "type": "uint256"
        }
      ],
      "name": "computePoolAPY",
      "outputs": [
        {
          "internalType": "uint256",
          "name": "",
          "type": "uint256"
        }
      ],
      "stateMutability": "view",
      "type": "function"
    },
    {
      "inputs": [],
      "name": "envStorage",
      "outputs": [
        {
          "internalType": "address",
          "name": "",
          "type": "address"
        }
      ],
      "stateMutability": "view",
      "type": "function"
    },
    {
      "inputs": [
        {
          "internalType": "uint256",
          "name": "pid",
          "type": "uint256"
        }
      ],
      "name": "getDepositAmount",
      "outputs": [
        {
          "internalType": "uint256",
          "name": "",
          "type": "uint256"
        }
      ],
      "stateMutability": "view",
      "type": "function"
    },
    {
      "inputs": [
        {
          "internalType": "uint256",
          "name": "pid",
          "type": "uint256"
        }
      ],
      "name": "getDepositAmountValue",
      "outputs": [
        {
          "internalType": "uint256",
          "name": "despoitAmtValue",
          "type": "uint256"
        }
      ],
      "stateMutability": "view",
      "type": "function"
    },
    {
      "inputs": [
        {
          "internalType": "uint256",
          "name": "pid",
          "type": "uint256"
        }
      ],
      "name": "getDistributionRatio",
      "outputs": [
        {
          "internalType": "uint256",
          "name": "distributionRatio",
          "type": "uint256"
        }
      ],
      "stateMutability": "view",
      "type": "function"
    },
    {
      "inputs": [],
      "name": "getNCPIds",
      "outputs": [
        {
          "internalType": "uint256[]",
          "name": "",
          "type": "uint256[]"
        }
      ],
      "stateMutability": "view",
      "type": "function"
    },
    {
      "inputs": [],
      "name": "getNCPInfo",
      "outputs": [
        {
          "components": [
            {
              "internalType": "uint256",
              "name": "pid",
              "type": "uint256"
            },
            {
              "internalType": "address",
              "name": "ncpAddr",
              "type": "address"
            },
            {
              "internalType": "uint256",
              "name": "accRewardPerShare",
              "type": "uint256"
            },
            {
              "internalType": "uint256",
              "name": "accMPPerShare",
              "type": "uint256"
            },
            {
              "internalType": "uint256",
              "name": "lastRewardBlock",
              "type": "uint256"
            },
            {
              "internalType": "uint256",
              "name": "totalDeposit",
              "type": "uint256"
            },
            {
              "internalType": "uint256",
              "name": "totalMP",
              "type": "uint256"
            },
            {
              "internalType": "uint256",
              "name": "unbondTime",
              "type": "uint256"
            },
            {
              "internalType": "uint256",
              "name": "totalRequestedWithdrawal",
              "type": "uint256"
            },
            {
              "internalType": "uint256",
              "name": "reward",
              "type": "uint256"
            },
            {
              "internalType": "uint256",
              "name": "APR",
              "type": "uint256"
            },
            {
              "internalType": "uint256",
              "name": "ShareRatio",
              "type": "uint256"
            },
            {
              "internalType": "uint256",
              "name": "feeRatio",
              "type": "uint256"
            },
            {
              "internalType": "bool",
              "name": "actevatedMP",
              "type": "bool"
            },
            {
              "internalType": "bool",
              "name": "lock",
              "type": "bool"
            },
            {
              "internalType": "address",
              "name": "breaker",
              "type": "address"
            },
            {
              "internalType": "address",
              "name": "breakerSetter",
              "type": "address"
            },
            {
              "internalType": "address",
              "name": "feeCollector",
              "type": "address"
            },
            {
              "internalType": "uint256",
              "name": "totalDepositors",
              "type": "uint256"
            },
            {
              "internalType": "uint256",
              "name": "feeRequestRatio",
              "type": "uint256"
            },
            {
              "internalType": "uint256",
              "name": "feeRequestBlockNumber",
              "type": "uint256"
            }
          ],
          "internalType": "struct INCPGateway.NCPInfo[]",
          "name": "",
          "type": "tuple[]"
        }
      ],
      "stateMutability": "view",
      "type": "function"
    },
    {
      "inputs": [
        {
          "internalType": "uint256",
          "name": "pid",
          "type": "uint256"
        }
      ],
      "name": "getShareRatio",
      "outputs": [
        {
          "internalType": "uint256",
          "name": "shareRatio",
          "type": "uint256"
        }
      ],
      "stateMutability": "view",
      "type": "function"
    },
    {
      "inputs": [],
      "name": "getTotalDepositAmount",
      "outputs": [
        {
          "internalType": "uint256",
          "name": "",
          "type": "uint256"
        }
      ],
      "stateMutability": "view",
      "type": "function"
    },
    {
      "inputs": [],
      "name": "getTotalDepositAmountValue",
      "outputs": [
        {
          "internalType": "uint256",
          "name": "totalDepositValue",
          "type": "uint256"
        }
      ],
      "stateMutability": "view",
      "type": "function"
    },
    {
      "inputs": [],
      "name": "getTotalRewardAPR",
      "outputs": [
        {
          "internalType": "uint256",
          "name": "poolTotalRewardAPR",
          "type": "uint256"
        }
      ],
      "stateMutability": "view",
      "type": "function"
    },
    {
      "inputs": [],
      "name": "getTotalWithdrawalAmount",
      "outputs": [
        {
          "internalType": "uint256",
          "name": "totalWithdrawalAmount",
          "type": "uint256"
        }
      ],
      "stateMutability": "view",
      "type": "function"
    },
    {
      "inputs": [
        {
          "internalType": "address",
          "name": "user",
          "type": "address"
        }
      ],
      "name": "getUserAPR",
      "outputs": [
        {
          "internalType": "uint256[]",
          "name": "AprSet",
          "type": "uint256[]"
        }
      ],
      "stateMutability": "view",
      "type": "function"
    },
    {
      "inputs": [
        {
          "internalType": "address",
          "name": "user",
          "type": "address"
        }
      ],
      "name": "getUserDepositAmount",
      "outputs": [
        {
          "internalType": "uint256[]",
          "name": "amounts",
          "type": "uint256[]"
        }
      ],
      "stateMutability": "view",
      "type": "function"
    },
    {
      "inputs": [
        {
          "internalType": "address",
          "name": "user",
          "type": "address"
        }
      ],
      "name": "getUserDepositAmountValue",
      "outputs": [
        {
          "internalType": "uint256[]",
          "name": "values",
          "type": "uint256[]"
        }
      ],
      "stateMutability": "view",
      "type": "function"
    },
    {
      "inputs": [
        {
          "internalType": "address",
          "name": "user",
          "type": "address"
        }
      ],
      "name": "getUserDepositOrNot",
      "outputs": [
        {
          "internalType": "bool[]",
          "name": "",
          "type": "bool[]"
        }
      ],
      "stateMutability": "view",
      "type": "function"
    },
    {
      "inputs": [
        {
          "internalType": "address",
          "name": "user",
          "type": "address"
        }
      ],
      "name": "getUserInfo",
      "outputs": [
        {
          "components": [
            {
              "internalType": "uint256",
              "name": "pid",
              "type": "uint256"
            },
            {
              "internalType": "uint256",
              "name": "depositAmount",
              "type": "uint256"
            },
            {
              "internalType": "uint256",
              "name": "pendingReward",
              "type": "uint256"
            },
            {
              "internalType": "uint256",
              "name": "APR",
              "type": "uint256"
            },
            {
              "internalType": "uint256",
              "name": "APY",
              "type": "uint256"
            },
            {
              "internalType": "uint256",
              "name": "lastRewardClaimed",
              "type": "uint256"
            }
          ],
          "internalType": "struct INCPGateway.UserInfo[]",
          "name": "",
          "type": "tuple[]"
        }
      ],
      "stateMutability": "view",
      "type": "function"
    },
    {
      "inputs": [
        {
          "internalType": "address",
          "name": "user",
          "type": "address"
        }
      ],
      "name": "getUserPendingReward",
      "outputs": [
        {
          "internalType": "uint256[]",
          "name": "rewards",
          "type": "uint256[]"
        }
      ],
      "stateMutability": "view",
      "type": "function"
    },
    {
      "inputs": [
        {
          "internalType": "address",
          "name": "user",
          "type": "address"
        }
      ],
      "name": "getUserPendingRewardValue",
      "outputs": [
        {
          "internalType": "uint256[]",
          "name": "rewardValues",
          "type": "uint256[]"
        }
      ],
      "stateMutability": "view",
      "type": "function"
    },
    {
      "inputs": [
        {
          "internalType": "address",
          "name": "user",
          "type": "address"
        }
      ],
      "name": "getUserTotalAPR",
      "outputs": [
        {
          "internalType": "uint256",
          "name": "totalAPR",
          "type": "uint256"
        }
      ],
      "stateMutability": "view",
      "type": "function"
    },
    {
      "inputs": [
        {
          "internalType": "address",
          "name": "user",
          "type": "address"
        }
      ],
      "name": "getUserTotalDepositAmount",
      "outputs": [
        {
          "internalType": "uint256",
          "name": "totalAmount",
          "type": "uint256"
        }
      ],
      "stateMutability": "view",
      "type": "function"
    },
    {
      "inputs": [
        {
          "internalType": "address",
          "name": "user",
          "type": "address"
        }
      ],
      "name": "getUserTotalDepositValue",
      "outputs": [
        {
          "internalType": "uint256",
          "name": "totalValue",
          "type": "uint256"
        }
      ],
      "stateMutability": "view",
      "type": "function"
    },
    {
      "inputs": [
        {
          "internalType": "address",
          "name": "user",
          "type": "address"
        }
      ],
      "name": "getUserTotalPendingReward",
      "outputs": [
        {
          "internalType": "uint256",
          "name": "totalReward",
          "type": "uint256"
        }
      ],
      "stateMutability": "view",
      "type": "function"
    },
    {
      "inputs": [
        {
          "internalType": "address",
          "name": "user",
          "type": "address"
        }
      ],
      "name": "getUserTotalPendingRewardValue",
      "outputs": [
        {
          "internalType": "uint256",
          "name": "totalRewardValue",
          "type": "uint256"
        }
      ],
      "stateMutability": "view",
      "type": "function"
    },
    {
      "inputs": [
        {
          "internalType": "address",
          "name": "user",
          "type": "address"
        }
      ],
      "name": "getUserTotalWithdrawAmount",
      "outputs": [
        {
          "internalType": "uint256",
          "name": "totalWithdrawAmount",
          "type": "uint256"
        }
      ],
      "stateMutability": "view",
      "type": "function"
    },
    {
      "inputs": [
        {
          "internalType": "address",
          "name": "user",
          "type": "address"
        }
      ],
      "name": "getUserTotalWithdrawValue",
      "outputs": [
        {
          "internalType": "uint256",
          "name": "totalWithdrawValue",
          "type": "uint256"
        }
      ],
      "stateMutability": "view",
      "type": "function"
    },
    {
      "inputs": [
        {
          "internalType": "address",
          "name": "user",
          "type": "address"
        }
      ],
      "name": "getUserWithdrawAmount",
      "outputs": [
        {
          "internalType": "uint256[]",
          "name": "withdrawAmounts",
          "type": "uint256[]"
        }
      ],
      "stateMutability": "view",
      "type": "function"
    },
    {
      "inputs": [
        {
          "internalType": "address",
          "name": "user",
          "type": "address"
        }
      ],
      "name": "getUserWithdrawRequestInfo",
      "outputs": [
        {
          "components": [
            {
              "internalType": "uint256",
              "name": "tokenid",
              "type": "uint256"
            },
            {
              "internalType": "uint256",
              "name": "pid",
              "type": "uint256"
            },
            {
              "internalType": "uint256",
              "name": "toPid",
              "type": "uint256"
            },
            {
              "internalType": "uint256",
              "name": "amount",
              "type": "uint256"
            },
            {
              "internalType": "uint256",
              "name": "requestTime",
              "type": "uint256"
            },
            {
              "internalType": "uint256",
              "name": "claimableTime",
              "type": "uint256"
            },
            {
              "internalType": "address",
              "name": "drawer",
              "type": "address"
            }
          ],
          "internalType": "struct INCPGateway.UserWithdrawInfo[]",
          "name": "",
          "type": "tuple[]"
        }
      ],
      "stateMutability": "view",
      "type": "function"
    },
    {
      "inputs": [
        {
          "internalType": "address",
          "name": "user",
          "type": "address"
        }
      ],
      "name": "getUserWithdrawTime",
      "outputs": [
        {
          "internalType": "uint256[]",
          "name": "withdrawTime",
          "type": "uint256[]"
        }
      ],
      "stateMutability": "view",
      "type": "function"
    },
    {
      "inputs": [
        {
          "internalType": "address",
          "name": "user",
          "type": "address"
        }
      ],
      "name": "getUserWithdrawValue",
      "outputs": [
        {
          "internalType": "uint256[]",
          "name": "withdrawValues",
          "type": "uint256[]"
        }
      ],
      "stateMutability": "view",
      "type": "function"
    },
    {
      "inputs": [],
      "name": "govStaking",
      "outputs": [
        {
          "internalType": "address",
          "name": "",
          "type": "address"
        }
      ],
      "stateMutability": "view",
      "type": "function"
    },
    {
      "inputs": [],
      "name": "governance",
      "outputs": [
        {
          "internalType": "address",
          "name": "",
          "type": "address"
        }
      ],
      "stateMutability": "view",
      "type": "function"
    },
    {
      "inputs": [
        {
          "internalType": "address",
          "name": "_ncpStaking",
          "type": "address"
        },
        {
          "internalType": "address",
          "name": "_governance",
          "type": "address"
        },
        {
          "internalType": "address",
          "name": "_govStaking",
          "type": "address"
        },
        {
          "internalType": "address",
          "name": "_withdrawNFT",
          "type": "address"
        },
        {
          "internalType": "address",
          "name": "_envStorage",
          "type": "address"
        },
        {
          "internalType": "address",
          "name": "_weswapGateway",
          "type": "address"
        }
      ],
      "name": "initialize",
      "outputs": [],
      "stateMutability": "nonpayable",
      "type": "function"
    },
    {
      "inputs": [],
      "name": "ncpStaking",
      "outputs": [
        {
          "internalType": "address",
          "name": "",
          "type": "address"
        }
      ],
      "stateMutability": "view",
      "type": "function"
    },
    {
      "inputs": [],
      "name": "owner",
      "outputs": [
        {
          "internalType": "address",
          "name": "",
          "type": "address"
        }
      ],
      "stateMutability": "view",
      "type": "function"
    },
    {
      "inputs": [
        {
          "internalType": "uint256",
          "name": "",
          "type": "uint256"
        }
      ],
      "name": "removedPools",
      "outputs": [
        {
          "internalType": "bool",
          "name": "",
          "type": "bool"
        }
      ],
      "stateMutability": "view",
      "type": "function"
    },
    {
      "inputs": [],
      "name": "renounceOwnership",
      "outputs": [],
      "stateMutability": "nonpayable",
      "type": "function"
    },
    {
      "inputs": [
        {
          "internalType": "address",
          "name": "newOwner",
          "type": "address"
        }
      ],
      "name": "transferOwnership",
      "outputs": [],
      "stateMutability": "nonpayable",
      "type": "function"
    },
    {
      "inputs": [],
      "name": "weswapGateway",
      "outputs": [
        {
          "internalType": "address",
          "name": "",
          "type": "address"
        }
      ],
      "stateMutability": "view",
      "type": "function"
    },
    {
      "inputs": [],
      "name": "withdrawNFT",
      "outputs": [
        {
          "internalType": "address",
          "name": "",
          "type": "address"
        }
      ],
      "stateMutability": "view",
      "type": "function"
    },
    {
      "inputs": [],
      "name": "withdrawalNFT",
      "outputs": [
        {
          "internalType": "contract IWithdrawalNFT",
          "name": "",
          "type": "address"
        }
      ],
      "stateMutability": "view",
      "type": "function"
    }
  ],
  "bytecode": "0x60806040523480156200001157600080fd5b506200001c62000022565b620000e4565b600054610100900460ff16156200008f5760405162461bcd60e51b815260206004820152602760248201527f496e697469616c697a61626c653a20636f6e747261637420697320696e697469604482015266616c697a696e6760c81b606482015260840160405180910390fd5b60005460ff9081161015620000e2576000805460ff191660ff9081179091556040519081527f7f26b83ff96e1f2b6a682f133852f6798a09c465da95921460cefb38474024989060200160405180910390a15b565b6144ff80620000f46000396000f3fe608060405234801561001057600080fd5b50600436106102745760003560e01c80637f38ee5311610151578063c1a3347b116100c3578063e6203bd911610087578063e6203bd91461058a578063f1b8aa1d1461059d578063f2fde38b146105b0578063f53fdb15146105c3578063f59eb04f146105d6578063f94f2883146105e957600080fd5b8063c1a3347b1461051e578063c6628dab14610531578063c671062914610544578063cc2a9a5b14610557578063cfad8a041461056a57600080fd5b8063a24bb15411610115578063a24bb154146104c2578063a8b9984a146104ca578063aa511d94146104dd578063ac5e5088146104f0578063b380bf5114610503578063bf9f0d5b1461051657600080fd5b80637f38ee531461046557806383453945146104785780638da5cb5b1461048b578063921c47021461049c578063929e1586146104af57600080fd5b8063483d96ec116101ea5780635e38c954116101ae5780635e38c954146103da57806362f633bc146103ed5780636386c1c7146103f5578063715018a614610415578063721da5d71461041f57806375ba9a0c1461043257600080fd5b8063483d96ec1461035657806349a0b247146103765780635aa6e675146103895780635bbd4268146103b45780635c1e53df146103c757600080fd5b80630f6352be1161023c5780630f6352be146102f857806312ebf2561461030b5780631e77e346146103205780633420f4b414610333578063378de45b1461033b5780633c9b97fc1461034e57600080fd5b8063070caa2a1461027957806307b7e8fc1461029f578063095fc275146102b25780630a32671d146102c55780630cec2a76146102e5575b600080fd5b61028c610287366004613bcb565b6105fc565b6040519081526020015b60405180910390f35b61028c6102ad366004613be8565b610738565b61028c6102c0366004613bcb565b6107e7565b6102d86102d3366004613bcb565b610898565b6040516102969190613c01565b6102d86102f3366004613bcb565b610adc565b61028c610306366004613be8565b610d25565b610313610e4b565b6040516102969190613c45565b6102d861032e366004613bcb565b61156a565b61028c61171b565b61028c610349366004613be8565b6118e8565b61028c611973565b610369610364366004613bcb565b6119d5565b6040516102969190613d77565b6102d8610384366004613bcb565b611d56565b60665461039c906001600160a01b031681565b6040516001600160a01b039091168152602001610296565b61028c6103c2366004613bcb565b611ea7565b60685461039c906001600160a01b031681565b606a5461039c906001600160a01b031681565b61028c611efa565b610408610403366004613bcb565b61203e565b6040516102969190613df5565b61041d612525565b005b61028c61042d366004613bcb565b612539565b610455610440366004613be8565b606d6020526000908152604090205460ff1681565b6040519015158152602001610296565b60675461039c906001600160a01b031681565b606b5461039c906001600160a01b031681565b6033546001600160a01b031661039c565b6102d86104aa366004613bcb565b61266d565b61028c6104bd366004613be8565b6128a8565b61028c6128b4565b61028c6104d8366004613bcb565b61296a565b606c5461039c906001600160a01b031681565b60695461039c906001600160a01b031681565b61028c610511366004613bcb565b612a27565b6102d8612a7a565b6102d861052c366004613bcb565b612ad2565b61028c61053f366004613be8565b612c7c565b6102d8610552366004613bcb565b612ec7565b61041d610565366004613e60565b61310c565b61057d610578366004613bcb565b61328a565b6040516102969190613ee2565b61028c610598366004613be8565b61346f565b60655461039c906001600160a01b031681565b61041d6105be366004613bcb565b613666565b6102d86105d1366004613bcb565b6136df565b61028c6105e4366004613bcb565b61394d565b61028c6105f7366004613be8565b61398a565b600080606660009054906101000a90046001600160a01b03166001600160a01b031663d965ea006040518163ffffffff1660e01b815260040160206040518083038186803b15801561064d57600080fd5b505afa158015610661573d6000803e3d6000fd5b505050506040513d601f19601f820116820180604052508101906106859190613f1c565b90506000610694826001613f4b565b6001600160401b038111156106ab576106ab613f63565b6040519080825280602002602001820160405280156106d4578160200160208202803683370190505b5090506106e084612ec7565b905060015b6106f0836001613f4b565b8110156107305781818151811061070957610709613f79565b60200260200101518461071c9190613f4b565b93508061072881613f8f565b9150506106e5565b505050919050565b606554604051632f380b3560e01b81526004810183905260009182916001600160a01b0390911690632f380b359060240160006040518083038186803b15801561078157600080fd5b505afa158015610795573d6000803e3d6000fd5b505050506040513d6000823e601f3d908101601f191682016040526107bd91908101906140ad565b610120015190506127108111156107d45792915050565b6107e0816127106141f4565b9392505050565b6000806107f383612539565b9050670de0b6b3a7640000606960009054906101000a90046001600160a01b03166001600160a01b031663954189446040518163ffffffff1660e01b815260040160206040518083038186803b15801561084c57600080fd5b505afa158015610860573d6000803e3d6000fd5b505050506040513d601f19601f820116820180604052508101906108849190613f1c565b61088e908361420b565b6107e0919061422a565b60606000606660009054906101000a90046001600160a01b03166001600160a01b031663d965ea006040518163ffffffff1660e01b815260040160206040518083038186803b1580156108ea57600080fd5b505afa1580156108fe573d6000803e3d6000fd5b505050506040513d601f19601f820116820180604052508101906109229190613f1c565b90506000610931826001613f4b565b6001600160401b0381111561094857610948613f63565b604051908082528060200260200182016040528015610971578160200160208202803683370190505b50905061097f826001613f4b565b6001600160401b0381111561099657610996613f63565b6040519080825280602002602001820160405280156109bf578160200160208202803683370190505b5092506000606960009054906101000a90046001600160a01b03166001600160a01b031663954189446040518163ffffffff1660e01b815260040160206040518083038186803b158015610a1257600080fd5b505afa158015610a26573d6000803e3d6000fd5b505050506040513d601f19601f82011682018060405250810190610a4a9190613f1c565b9050610a5585612ec7565b915060015b610a65846001613f4b565b811015610ad357670de0b6b3a764000082848381518110610a8857610a88613f79565b6020026020010151610a9a919061420b565b610aa4919061422a565b858281518110610ab657610ab6613f79565b602090810291909101015280610acb81613f8f565b915050610a5a565b50505050919050565b60606000606660009054906101000a90046001600160a01b03166001600160a01b031663d965ea006040518163ffffffff1660e01b815260040160206040518083038186803b158015610b2e57600080fd5b505afa158015610b42573d6000803e3d6000fd5b505050506040513d601f19601f82011682018060405250810190610b669190613f1c565b90506000610b75826001613f4b565b6001600160401b03811115610b8c57610b8c613f63565b604051908082528060200260200182016040528015610bb5578160200160208202803683370190505b509050610bc3826001613f4b565b6001600160401b03811115610bda57610bda613f63565b604051908082528060200260200182016040528015610c03578160200160208202803683370190505b509250610c0f8461328a565b905060015b610c1f836001613f4b565b81101561073057818181518110610c3857610c38613f79565b6020908102919091010151610c6c576000848281518110610c5b57610c5b613f79565b602002602001018181525050610d13565b606554604051631069f3b560e01b8152600481018390526001600160a01b03878116602483015290911690631069f3b59060440160a06040518083038186803b158015610cb857600080fd5b505afa158015610ccc573d6000803e3d6000fd5b505050506040513d601f19601f82011682018060405250810190610cf0919061424c565b60000151848281518110610d0657610d06613f79565b6020026020010181815250505b80610d1d81613f8f565b915050610c14565b6000620151806ec097ce7bc90715b34b9f1000000000818381610d4787612c7c565b610d51919061422a565b610d6390670de0b6b3a764000061420b565b9050600083610d72838061420b565b610d7c919061422a565b9050600084610d8b848461420b565b610d95919061422a565b9050670de0b6b3a7640000600682610dae6002886141f4565b610db96001896141f4565b610dc3908961420b565b610dcd919061420b565b610dd7919061420b565b610de1919061422a565b600284610def6001896141f4565b610df9908961420b565b610e03919061420b565b610e0d919061422a565b610e17868861420b565b610e219089613f4b565b610e2b9190613f4b565b610e359190613f4b565b610e3f919061422a565b98975050505050505050565b60606000606660009054906101000a90046001600160a01b03166001600160a01b031663d965ea006040518163ffffffff1660e01b815260040160206040518083038186803b158015610e9d57600080fd5b505afa158015610eb1573d6000803e3d6000fd5b505050506040513d601f19601f82011682018060405250810190610ed59190613f1c565b90506000606560009054906101000a90046001600160a01b03166001600160a01b031663081e3eda6040518163ffffffff1660e01b815260040160206040518083038186803b158015610f2757600080fd5b505afa158015610f3b573d6000803e3d6000fd5b505050506040513d601f19601f82011682018060405250810190610f5f9190613f1c565b90506000816001600160401b03811115610f7b57610f7b613f63565b604051908082528060200260200182016040528015610fb457816020015b610fa1613aa8565b815260200190600190039081610f995790505b509050600080610fc2611973565b90506000610fce61171b565b90506000606760009054906101000a90046001600160a01b03166001600160a01b031663d5c258906040518163ffffffff1660e01b815260040160206040518083038186803b15801561102057600080fd5b505afa158015611034573d6000803e3d6000fd5b505050506040513d601f19601f820116820180604052508101906110589190613f1c565b905060008161106f84670de0b6b3a764000061420b565b611079919061422a565b90506000606560009054906101000a90046001600160a01b03166001600160a01b0316638a42cef36040518163ffffffff1660e01b815260040160206040518083038186803b1580156110cb57600080fd5b505afa1580156110df573d6000803e3d6000fd5b505050506040513d601f19601f820116820180604052508101906111039190613f1c565b905060005b606e548110156114af576000606e828154811061112757611127613f79565b6000918252602080832090910154808352606d90915260409091205490915060ff16151560011415611159575061149d565b606554604051632f380b3560e01b8152600481018390526000916001600160a01b031690632f380b359060240160006040518083038186803b15801561119e57600080fd5b505afa1580156111b2573d6000803e3d6000fd5b505050506040513d6000823e601f3d908101601f191682016040526111da91908101906140ad565b606554604051637af01d4760e01b8152600481018590529192506000916001600160a01b0390911690637af01d4790602401604080518083038186803b15801561122357600080fd5b505afa158015611237573d6000803e3d6000fd5b505050506040513d601f19601f8201168201806040525081019061125b91906142bb565b82519091506001600160a01b03166112755750505061149d565b60006127108084610120015161271061128e91906141f4565b61129a896127106141f4565b6112a4908b61420b565b6112ae919061420b565b6112b8919061422a565b6112c2919061422a565b60655460405163b2eafd5760e01b8152600481018790529192506000916001600160a01b039091169063b2eafd579060240160206040518083038186803b15801561130c57600080fd5b505afa158015611320573d6000803e3d6000fd5b505050506040513d601f19601f820116820180604052508101906113449190614309565b9050604051806102a0016040528086815260200185600001516001600160a01b031681526020018560400151815260200185606001518152602001856080015181526020018560a0015181526020018560c0015181526020018560e0015181526020018561010001518152602001826001600160a01b03163181526020018381526020018c8660a00151670de0b6b3a76400006113e1919061420b565b6113eb919061422a565b8152602001856101200151815260200185610140015115158152602001856101600151151581526020018561018001516001600160a01b03168152602001856101a001516001600160a01b03168152602001856101c001516001600160a01b03168152602001856101e0015181526020018460000151815260200184602001518152508d8d8061147a90613f8f565b9e508151811061148c5761148c613f79565b602002602001018190525050505050505b806114a781613f8f565b915050611108565b506000866001600160401b038111156114ca576114ca613f63565b60405190808252806020026020018201604052801561150357816020015b6114f0613aa8565b8152602001906001900390816114e85790505b50905060005b8781101561155b5788818151811061152357611523613f79565b602002602001015182828151811061153d5761153d613f79565b6020026020010181905250808061155390613f8f565b915050611509565b509a9950505050505050505050565b606a54604051632a04c04960e11b81526001600160a01b038381166004830152606092839291169063540980929060240160006040518083038186803b1580156115b357600080fd5b505afa1580156115c7573d6000803e3d6000fd5b505050506040513d6000823e601f3d908101601f191682016040526115ef9190810190614326565b905080516001600160401b0381111561160a5761160a613f63565b604051908082528060200260200182016040528015611633578160200160208202803683370190505b50915060005b825181101561171457606a5482516001600160a01b03909116906399a904b59084908490811061166b5761166b613f79565b60200260200101516040518263ffffffff1660e01b815260040161169191815260200190565b60e06040518083038186803b1580156116a957600080fd5b505afa1580156116bd573d6000803e3d6000fd5b505050506040513d601f19601f820116820180604052508101906116e191906143bf565b606001518382815181106116f7576116f7613f79565b60209081029190910101528061170c81613f8f565b915050611639565b5050919050565b600080606860009054906101000a90046001600160a01b03166001600160a01b0316638f6fe7256040518163ffffffff1660e01b815260040160806040518083038186803b15801561176c57600080fd5b505afa158015611780573d6000803e3d6000fd5b505050506040513d601f19601f820116820180604052508101906117a49190614448565b50505090506000606860009054906101000a90046001600160a01b03166001600160a01b0316635dba8c4a6040518163ffffffff1660e01b815260040160206040518083038186803b1580156117f957600080fd5b505afa15801561180d573d6000803e3d6000fd5b505050506040513d601f19601f820116820180604052508101906118319190613f1c565b90506000606860009054906101000a90046001600160a01b03166001600160a01b031663918f86746040518163ffffffff1660e01b815260040160206040518083038186803b15801561188357600080fd5b505afa158015611897573d6000803e3d6000fd5b505050506040513d601f19601f820116820180604052508101906118bb9190613f1c565b9050806118c8848461420b565b6118d6906301e1338061420b565b6118e0919061422a565b935050505090565b606554604051632f380b3560e01b8152600481018390526000916001600160a01b031690632f380b359060240160006040518083038186803b15801561192d57600080fd5b505afa158015611941573d6000803e3d6000fd5b505050506040513d6000823e601f3d908101601f1916820160405261196991908101906140ad565b60a0015192915050565b6000808061197f612a7a565b905060005b81518110156119cd576119af8282815181106119a2576119a2613f79565b60200260200101516118e8565b6119b99084613f4b565b9250806119c581613f8f565b915050611984565b509092915050565b606a54604051632a04c04960e11b81526001600160a01b038381166004830152606092839291169063540980929060240160006040518083038186803b158015611a1e57600080fd5b505afa158015611a32573d6000803e3d6000fd5b505050506040513d6000823e601f3d908101601f19168201604052611a5a9190810190614326565b9050600081516001600160401b03811115611a7757611a77613f63565b604051908082528060200260200182016040528015611ab057816020015b611a9d613b70565b815260200190600190039081611a955790505b5090506000805b8351811015611ca057606a5484516000916001600160a01b0316906399a904b590879085908110611aea57611aea613f79565b60200260200101516040518263ffffffff1660e01b8152600401611b1091815260200190565b60e06040518083038186803b158015611b2857600080fd5b505afa158015611b3c573d6000803e3d6000fd5b505050506040513d601f19601f82011682018060405250810190611b6091906143bf565b6065546020820151604051632f380b3560e01b81529293506000926001600160a01b0390921691632f380b3591611b9d9160040190815260200190565b60006040518083038186803b158015611bb557600080fd5b505afa158015611bc9573d6000803e3d6000fd5b505050506040513d6000823e601f3d908101601f19168201604052611bf191908101906140ad565b80519091506001600160a01b0316611c0a575050611c8e565b6040518060e0016040528083600001518152602001836020015181526020018360400151815260200183606001518152602001836080015181526020018360a0015181526020018360c001516001600160a01b0316815250858580611c6e90613f8f565b965081518110611c8057611c80613f79565b602002602001018190525050505b80611c9881613f8f565b915050611ab7565b506000816001600160401b03811115611cbb57611cbb613f63565b604051908082528060200260200182016040528015611cf457816020015b611ce1613b70565b815260200190600190039081611cd95790505b50905060005b82811015611d4c57838181518110611d1457611d14613f79565b6020026020010151828281518110611d2e57611d2e613f79565b60200260200101819052508080611d4490613f8f565b915050611cfa565b5095945050505050565b60606000611d638361156a565b90506000606960009054906101000a90046001600160a01b03166001600160a01b031663954189446040518163ffffffff1660e01b815260040160206040518083038186803b158015611db557600080fd5b505afa158015611dc9573d6000803e3d6000fd5b505050506040513d601f19601f82011682018060405250810190611ded9190613f1c565b905081516001600160401b03811115611e0857611e08613f63565b604051908082528060200260200182016040528015611e31578160200160208202803683370190505b50925060005b825181101561073057670de0b6b3a764000082848381518110611e5c57611e5c613f79565b6020026020010151611e6e919061420b565b611e78919061422a565b848281518110611e8a57611e8a613f79565b602090810291909101015280611e9f81613f8f565b915050611e37565b600080611eb383611d56565b905060005b815181101561171457818181518110611ed357611ed3613f79565b602002602001015183611ee69190613f4b565b925080611ef281613f8f565b915050611eb8565b600060015b606560009054906101000a90046001600160a01b03166001600160a01b031663081e3eda6040518163ffffffff1660e01b815260040160206040518083038186803b158015611f4d57600080fd5b505afa158015611f61573d6000803e3d6000fd5b505050506040513d601f19601f82011682018060405250810190611f859190613f1c565b611f90906001613f4b565b81101561203a57606554604051632f380b3560e01b8152600481018390526001600160a01b0390911690632f380b359060240160006040518083038186803b158015611fdb57600080fd5b505afa158015611fef573d6000803e3d6000fd5b505050506040513d6000823e601f3d908101601f1916820160405261201791908101906140ad565b61010001516120269083613f4b565b91508061203281613f8f565b915050611eff565b5090565b606060006301e1338090506000606660009054906101000a90046001600160a01b03166001600160a01b031663d965ea006040518163ffffffff1660e01b815260040160206040518083038186803b15801561209957600080fd5b505afa1580156120ad573d6000803e3d6000fd5b505050506040513d601f19601f820116820180604052508101906120d19190613f1c565b90506000606560009054906101000a90046001600160a01b03166001600160a01b031663081e3eda6040518163ffffffff1660e01b815260040160206040518083038186803b15801561212357600080fd5b505afa158015612137573d6000803e3d6000fd5b505050506040513d601f19601f8201168201806040525081019061215b9190613f1c565b90506000816001600160401b0381111561217757612177613f63565b6040519080825280602002602001820160405280156121e157816020015b6121ce6040518060c001604052806000815260200160008152602001600081526020016000815260200160008152602001600081525090565b8152602001906001900390816121955790505b5090506000805b606e5481101561243c576000606e828154811061220757612207613f79565b6000918252602082200154606554604051631069f3b560e01b8152600481018390526001600160a01b038d81166024830152929450911690631069f3b59060440160a06040518083038186803b15801561226057600080fd5b505afa158015612274573d6000803e3d6000fd5b505050506040513d601f19601f82011682018060405250810190612298919061424c565b80519091506122a857505061242a565b60655460405163577c96b360e11b8152600481018490526001600160a01b038c81166024830152600092169063aef92d669060440160206040518083038186803b1580156122f557600080fd5b505afa158015612309573d6000803e3d6000fd5b505050506040513d601f19601f8201168201806040525081019061232d9190613f1c565b9050600082608001514361234191906141f4565b90506000811561238457835182906123598d8661420b565b61236b90670de0b6b3a764000061420b565b612375919061422a565b61237f919061422a565b612387565b60005b6040805160c0810182528781528651602082015290810185905285519192509060608201906123be86670de0b6b3a764000061420b565b6123c8919061422a565b81526020016127106123d988612c7c565b6123e590612b7161420b565b6123ef919061422a565b81526080860151602090910152888861240781613f8f565b99508151811061241957612419613f79565b602002602001018190525050505050505b8061243481613f8f565b9150506121e8565b506000816001600160401b0381111561245757612457613f63565b6040519080825280602002602001820160405280156124c157816020015b6124ae6040518060c001604052806000815260200160008152602001600081526020016000815260200160008152602001600081525090565b8152602001906001900390816124755790505b50905060005b82811015612519578381815181106124e1576124e1613f79565b60200260200101518282815181106124fb576124fb613f79565b6020026020010181905250808061251190613f8f565b9150506124c7565b50979650505050505050565b61252d6139a2565b61253760006139fc565b565b600080606660009054906101000a90046001600160a01b03166001600160a01b031663d965ea006040518163ffffffff1660e01b815260040160206040518083038186803b15801561258a57600080fd5b505afa15801561259e573d6000803e3d6000fd5b505050506040513d601f19601f820116820180604052508101906125c29190613f1c565b905060006125d1826001613f4b565b6001600160401b038111156125e8576125e8613f63565b604051908082528060200260200182016040528015612611578160200160208202803683370190505b50905061261d84610adc565b905060015b61262d836001613f4b565b8110156107305781818151811061264657612646613f79565b6020026020010151846126599190613f4b565b93508061266581613f8f565b915050612622565b60606000606660009054906101000a90046001600160a01b03166001600160a01b031663d965ea006040518163ffffffff1660e01b815260040160206040518083038186803b1580156126bf57600080fd5b505afa1580156126d3573d6000803e3d6000fd5b505050506040513d601f19601f820116820180604052508101906126f79190613f1c565b90506000612706826001613f4b565b6001600160401b0381111561271d5761271d613f63565b604051908082528060200260200182016040528015612746578160200160208202803683370190505b509050612754826001613f4b565b6001600160401b0381111561276b5761276b613f63565b604051908082528060200260200182016040528015612794578160200160208202803683370190505b5092506127a084610adc565b90506000606960009054906101000a90046001600160a01b03166001600160a01b031663954189446040518163ffffffff1660e01b815260040160206040518083038186803b1580156127f257600080fd5b505afa158015612806573d6000803e3d6000fd5b505050506040513d601f19601f8201168201806040525081019061282a9190613f1c565b905060015b61283a846001613f4b565b811015610ad357670de0b6b3a76400008284838151811061285d5761285d613f79565b602002602001015161286f919061420b565b612879919061422a565b85828151811061288b5761288b613f79565b6020908102919091010152806128a081613f8f565b91505061282f565b6000806107f3836118e8565b6000806128bf611973565b9050670de0b6b3a7640000606960009054906101000a90046001600160a01b03166001600160a01b031663954189446040518163ffffffff1660e01b815260040160206040518083038186803b15801561291857600080fd5b505afa15801561292c573d6000803e3d6000fd5b505050506040513d601f19601f820116820180604052508101906129509190613f1c565b61295a908361420b565b612964919061422a565b91505090565b600080612976836105fc565b90506000606960009054906101000a90046001600160a01b03166001600160a01b031663954189446040518163ffffffff1660e01b815260040160206040518083038186803b1580156129c857600080fd5b505afa1580156129dc573d6000803e3d6000fd5b505050506040513d601f19601f82011682018060405250810190612a009190613f1c565b9050670de0b6b3a7640000612a15828461420b565b612a1f919061422a565b949350505050565b600080612a338361156a565b905060005b815181101561171457818181518110612a5357612a53613f79565b602002602001015183612a669190613f4b565b925080612a7281613f8f565b915050612a38565b6060606e805480602002602001604051908101604052809291908181526020018280548015612ac857602002820191906000526020600020905b815481526020019060010190808311612ab4575b5050505050905090565b606a54604051632a04c04960e11b81526001600160a01b038381166004830152606092839291169063540980929060240160006040518083038186803b158015612b1b57600080fd5b505afa158015612b2f573d6000803e3d6000fd5b505050506040513d6000823e601f3d908101601f19168201604052612b579190810190614326565b905080516001600160401b03811115612b7257612b72613f63565b604051908082528060200260200182016040528015612b9b578160200160208202803683370190505b50915060005b825181101561171457606a5482516001600160a01b03909116906399a904b590849084908110612bd357612bd3613f79565b60200260200101516040518263ffffffff1660e01b8152600401612bf991815260200190565b60e06040518083038186803b158015612c1157600080fd5b505afa158015612c25573d6000803e3d6000fd5b505050506040513d601f19601f82011682018060405250810190612c4991906143bf565b60a00151838281518110612c5f57612c5f613f79565b602090810291909101015280612c7481613f8f565b915050612ba1565b606554604051632f380b3560e01b81526004810183905260009182916001600160a01b0390911690632f380b359060240160006040518083038186803b158015612cc557600080fd5b505afa158015612cd9573d6000803e3d6000fd5b505050506040513d6000823e601f3d908101601f19168201604052612d0191908101906140ad565b905060008160a0015190506000606560009054906101000a90046001600160a01b03166001600160a01b0316638a42cef36040518163ffffffff1660e01b815260040160206040518083038186803b158015612d5c57600080fd5b505afa158015612d70573d6000803e3d6000fd5b505050506040513d601f19601f82011682018060405250810190612d949190613f1c565b6067548451604051637d77a0eb60e01b81526001600160a01b0391821660048201526127106024820152929350600092911690637d77a0eb9060440160206040518083038186803b158015612de857600080fd5b505afa158015612dfc573d6000803e3d6000fd5b505050506040513d601f19601f82011682018060405250810190612e209190613f1c565b905082612e305760009450610ad3565b60008361271083612e3f61171b565b612e49919061420b565b612e5b90670de0b6b3a764000061420b565b612e65919061422a565b612e6f919061422a565b905061271080866101200151612710612e8891906141f4565b612e94866127106141f4565b612e9e908561420b565b612ea8919061420b565b612eb2919061422a565b612ebc919061422a565b979650505050505050565b60606000606660009054906101000a90046001600160a01b03166001600160a01b031663d965ea006040518163ffffffff1660e01b815260040160206040518083038186803b158015612f1957600080fd5b505afa158015612f2d573d6000803e3d6000fd5b505050506040513d601f19601f82011682018060405250810190612f519190613f1c565b90506000612f60826001613f4b565b6001600160401b03811115612f7757612f77613f63565b604051908082528060200260200182016040528015612fa0578160200160208202803683370190505b509050612fae826001613f4b565b6001600160401b03811115612fc557612fc5613f63565b604051908082528060200260200182016040528015612fee578160200160208202803683370190505b509250612ffa8461328a565b905060015b61300a836001613f4b565b8110156107305781818151811061302357613023613f79565b602090810291909101015161305757600084828151811061304657613046613f79565b6020026020010181815250506130fa565b606554604051634c4b4f4160e11b8152600481018390526001600160a01b038781166024830152909116906398969e829060440160206040518083038186803b1580156130a357600080fd5b505afa1580156130b7573d6000803e3d6000fd5b505050506040513d601f19601f820116820180604052508101906130db9190613f1c565b8482815181106130ed576130ed613f79565b6020026020010181815250505b8061310481613f8f565b915050612fff565b600054610100900460ff161580801561312c5750600054600160ff909116105b806131465750303b158015613146575060005460ff166001145b6131ae5760405162461bcd60e51b815260206004820152602e60248201527f496e697469616c697a61626c653a20636f6e747261637420697320616c72656160448201526d191e481a5b9a5d1a585b1a5e995960921b60648201526084015b60405180910390fd5b6000805460ff1916600117905580156131d1576000805461ff0019166101001790555b6131d9613a4e565b606580546001600160a01b03199081166001600160a01b038a811691909117909255606680548216898416179055606780548216888416179055606a80548216878416179055606880548216868416179055606980549091169184169190911790558015613281576000805461ff0019169055604051600181527f7f26b83ff96e1f2b6a682f133852f6798a09c465da95921460cefb38474024989060200160405180910390a15b50505050505050565b60606000606660009054906101000a90046001600160a01b03166001600160a01b031663d965ea006040518163ffffffff1660e01b815260040160206040518083038186803b1580156132dc57600080fd5b505afa1580156132f0573d6000803e3d6000fd5b505050506040513d601f19601f820116820180604052508101906133149190613f1c565b90506000613323826001613f4b565b6001600160401b0381111561333a5761333a613f63565b604051908082528060200260200182016040528015613363578160200160208202803683370190505b50905060015b613374836001613f4b565b81101561346757606554604051631069f3b560e01b8152600481018390526001600160a01b0387811660248301526000921690631069f3b59060440160a06040518083038186803b1580156133c857600080fd5b505afa1580156133dc573d6000803e3d6000fd5b505050506040513d601f19601f82011682018060405250810190613400919061424c565b51111561343057600182828151811061341b5761341b613f79565b91151560209283029190910190910152613455565b600082828151811061344457613444613f79565b911515602092830291909101909101525b8061345f81613f8f565b915050613369565b509392505050565b606554604051632f380b3560e01b81526004810183905260009182916001600160a01b0390911690632f380b359060240160006040518083038186803b1580156134b857600080fd5b505afa1580156134cc573d6000803e3d6000fd5b505050506040513d6000823e601f3d908101601f191682016040526134f491908101906140ad565b905060008160a0015190506000606560009054906101000a90046001600160a01b03166001600160a01b0316638a42cef36040518163ffffffff1660e01b815260040160206040518083038186803b15801561354f57600080fd5b505afa158015613563573d6000803e3d6000fd5b505050506040513d601f19601f820116820180604052508101906135879190613f1c565b9050816135975760009350610730565b6000826135a261171b565b6135b490670de0b6b3a764000061420b565b6135be919061422a565b606554604051637af01d4760e01b8152600481018990529192506000916001600160a01b0390911690637af01d4790602401604080518083038186803b15801561360757600080fd5b505afa15801561361b573d6000803e3d6000fd5b505050506040513d601f19601f8201168201806040525081019061363f91906142bb565b5190506127108061365083826141f4565b61365c866127106141f4565b612e9e908661420b565b61366e6139a2565b6001600160a01b0381166136d35760405162461bcd60e51b815260206004820152602660248201527f4f776e61626c653a206e6577206f776e657220697320746865207a65726f206160448201526564647265737360d01b60648201526084016131a5565b6136dc816139fc565b50565b60606000606660009054906101000a90046001600160a01b03166001600160a01b031663d965ea006040518163ffffffff1660e01b815260040160206040518083038186803b15801561373157600080fd5b505afa158015613745573d6000803e3d6000fd5b505050506040513d601f19601f820116820180604052508101906137699190613f1c565b9050613776816001613f4b565b6001600160401b0381111561378d5761378d613f63565b6040519080825280602002602001820160405280156137b6578160200160208202803683370190505b50915060006137c6826001613f4b565b6001600160401b038111156137dd576137dd613f63565b604051908082528060200260200182016040528015613806578160200160208202803683370190505b5090506000613816836001613f4b565b6001600160401b0381111561382d5761382d613f63565b604051908082528060200260200182016040528015613856578160200160208202803683370190505b50905061386285610adc565b905061386d85612ec7565b915060015b61387d846001613f4b565b811015610ad35781818151811061389657613896613f79565b6020026020010151600014156138cb5760008582815181106138ba576138ba613f79565b60200260200101818152505061393b565b8181815181106138dd576138dd613f79565b6020026020010151670de0b6b3a764000084838151811061390057613900613f79565b6020026020010151613912919061420b565b61391c919061422a565b85828151811061392e5761392e613f79565b6020026020010181815250505b8061394581613f8f565b915050613872565b60008061395983612539565b90506000613966846105fc565b905081613977575060009392505050565b81612a15670de0b6b3a76400008361420b565b600080613995611973565b90506000613966846118e8565b6033546001600160a01b031633146125375760405162461bcd60e51b815260206004820181905260248201527f4f776e61626c653a2063616c6c6572206973206e6f7420746865206f776e657260448201526064016131a5565b603380546001600160a01b038381166001600160a01b0319831681179093556040519116919082907f8be0079c531659141344cd1fd0a4f28419497f9722a3daafe3b4186f6b6457e090600090a35050565b600054610100900460ff16613a755760405162461bcd60e51b81526004016131a59061447e565b612537600054610100900460ff16613a9f5760405162461bcd60e51b81526004016131a59061447e565b612537336139fc565b604051806102a001604052806000815260200160006001600160a01b03168152602001600081526020016000815260200160008152602001600081526020016000815260200160008152602001600081526020016000815260200160008152602001600081526020016000815260200160001515815260200160001515815260200160006001600160a01b0316815260200160006001600160a01b0316815260200160006001600160a01b031681526020016000815260200160008152602001600081525090565b6040518060e0016040528060008152602001600081526020016000815260200160008152602001600081526020016000815260200160006001600160a01b031681525090565b6001600160a01b03811681146136dc57600080fd5b600060208284031215613bdd57600080fd5b81356107e081613bb6565b600060208284031215613bfa57600080fd5b5035919050565b6020808252825182820181905260009190848201906040850190845b81811015613c3957835183529284019291840191600101613c1d565b50909695505050505050565b602080825282518282018190526000919060409081850190868401855b82811015613d6a57815180518552868101516001600160a01b03908116888701528682015187870152606080830151908701526080808301519087015260a0808301519087015260c0808301519087015260e08083015190870152610100808301519087015261012080830151908701526101408083015190870152610160808301519087015261018080830151908701526101a0808301511515908701526101c0808301511515908701526101e0808301518216908701526102008083015182169087015261022080830151909116908601526102408082015190860152610260808201519086015261028090810151908501526102a09093019290850190600101613c62565b5091979650505050505050565b602080825282518282018190526000919060409081850190868401855b82811015613d6a5781518051855286810151878601528581015186860152606080820151908601526080808201519086015260a0808201519086015260c0908101516001600160a01b03169085015260e09093019290850190600101613d94565b602080825282518282018190526000919060409081850190868401855b82811015613d6a5781518051855286810151878601528581015186860152606080820151908601526080808201519086015260a0908101519085015260c09093019290850190600101613e12565b60008060008060008060c08789031215613e7957600080fd5b8635613e8481613bb6565b95506020870135613e9481613bb6565b94506040870135613ea481613bb6565b93506060870135613eb481613bb6565b92506080870135613ec481613bb6565b915060a0870135613ed481613bb6565b809150509295509295509295565b6020808252825182820181905260009190848201906040850190845b81811015613c39578351151583529284019291840191600101613efe565b600060208284031215613f2e57600080fd5b5051919050565b634e487b7160e01b600052601160045260246000fd5b60008219821115613f5e57613f5e613f35565b500190565b634e487b7160e01b600052604160045260246000fd5b634e487b7160e01b600052603260045260246000fd5b6000600019821415613fa357613fa3613f35565b5060010190565b60405161020081016001600160401b0381118282101715613fcd57613fcd613f63565b60405290565b604051601f8201601f191681016001600160401b0381118282101715613ffb57613ffb613f63565b604052919050565b805161400e81613bb6565b919050565b600082601f83011261402457600080fd5b81516001600160401b0381111561403d5761403d613f63565b6020614051601f8301601f19168201613fd3565b828152858284870101111561406557600080fd5b60005b83811015614083578581018301518282018401528201614068565b83811115611d4c5760008385840101525095945050505050565b8051801515811461400e57600080fd5b6000602082840312156140bf57600080fd5b81516001600160401b03808211156140d657600080fd5b9083019061020082860312156140eb57600080fd5b6140f3613faa565b6140fc83614003565b815260208301518281111561411057600080fd5b61411c87828601614013565b60208301525060408301516040820152606083015160608201526080830151608082015260a083015160a082015260c083015160c082015260e083015160e08201526101009150818301518282015261012091508183015182820152610140915061418882840161409d565b82820152610160915061419c82840161409d565b8282015261018091506141b0828401614003565b828201526101a091506141c4828401614003565b828201526101c091506141d8828401614003565b918101919091526101e091820151918101919091529392505050565b60008282101561420657614206613f35565b500390565b600081600019048311821515161561422557614225613f35565b500290565b60008261424757634e487b7160e01b600052601260045260246000fd5b500490565b600060a0828403121561425e57600080fd5b60405160a081018181106001600160401b038211171561428057614280613f63565b806040525082518152602083015160208201526040830151604082015260608301516060820152608083015160808201528091505092915050565b6000604082840312156142cd57600080fd5b604051604081018181106001600160401b03821117156142ef576142ef613f63565b604052825181526020928301519281019290925250919050565b60006020828403121561431b57600080fd5b81516107e081613bb6565b6000602080838503121561433957600080fd5b82516001600160401b038082111561435057600080fd5b818501915085601f83011261436457600080fd5b81518181111561437657614376613f63565b8060051b9150614387848301613fd3565b81815291830184019184810190888411156143a157600080fd5b938501935b83851015610e3f578451825293850193908501906143a6565b600060e082840312156143d157600080fd5b60405160e081018181106001600160401b03821117156143f3576143f3613f63565b8060405250825181526020830151602082015260408301516040820152606083015160608201526080830151608082015260a083015160a082015260c083015161443c81613bb6565b60c08201529392505050565b6000806000806080858703121561445e57600080fd5b505082516020840151604085015160609095015191969095509092509050565b6020808252602b908201527f496e697469616c697a61626c653a20636f6e7472616374206973206e6f74206960408201526a6e697469616c697a696e6760a81b60608201526080019056fea26469706673582212203949ff4d33f7e69457fd156cdc7fc3a7868fc76a787b7443dc1975d1b0fd548c64736f6c63430008090033",
  "linkReferences": {},
  "deployedLinkReferences": {}
}